{
  "_format": "hh-sol-artifact-1",
  "contractName": "Amulet",
  "sourceName": "contracts/Amulet.sol",
  "abi": [
    {
      "inputs": [],
      "stateMutability": "nonpayable",
      "type": "constructor"
    },
    {
      "anonymous": false,
      "inputs": [
        {
          "indexed": true,
          "internalType": "uint256",
          "name": "tokenId",
          "type": "uint256"
        },
        {
          "indexed": false,
          "internalType": "address",
          "name": "revealedBy",
          "type": "address"
        },
        {
          "indexed": false,
          "internalType": "string",
          "name": "title",
          "type": "string"
        },
        {
          "indexed": false,
          "internalType": "string",
          "name": "amulet",
          "type": "string"
        },
        {
          "indexed": false,
          "internalType": "string",
          "name": "offsetUrl",
          "type": "string"
        }
      ],
      "name": "AmuletRevealed",
      "type": "event"
    },
    {
      "anonymous": false,
      "inputs": [
        {
          "indexed": true,
          "internalType": "address",
          "name": "owner",
          "type": "address"
        },
        {
          "indexed": true,
          "internalType": "address",
          "name": "approved",
          "type": "address"
        },
        {
          "indexed": true,
          "internalType": "uint256",
          "name": "tokenId",
          "type": "uint256"
        }
      ],
      "name": "Approval",
      "type": "event"
    },
    {
      "anonymous": false,
      "inputs": [
        {
          "indexed": true,
          "internalType": "address",
          "name": "owner",
          "type": "address"
        },
        {
          "indexed": true,
          "internalType": "address",
          "name": "operator",
          "type": "address"
        },
        {
          "indexed": false,
          "internalType": "bool",
          "name": "approved",
          "type": "bool"
        }
      ],
      "name": "ApprovalForAll",
      "type": "event"
    },
    {
      "anonymous": false,
      "inputs": [
        {
          "indexed": true,
          "internalType": "address",
          "name": "from",
          "type": "address"
        },
        {
          "indexed": true,
          "internalType": "address",
          "name": "to",
          "type": "address"
        },
        {
          "indexed": true,
          "internalType": "uint256",
          "name": "tokenId",
          "type": "uint256"
        }
      ],
      "name": "Transfer",
      "type": "event"
    },
    {
      "inputs": [
        {
          "internalType": "address",
          "name": "to",
          "type": "address"
        },
        {
          "internalType": "uint256",
          "name": "tokenId",
          "type": "uint256"
        }
      ],
      "name": "approve",
      "outputs": [],
      "stateMutability": "nonpayable",
      "type": "function"
    },
    {
      "inputs": [
        {
          "internalType": "address",
          "name": "",
          "type": "address"
        }
      ],
      "name": "balanceOf",
      "outputs": [
        {
          "internalType": "uint256",
          "name": "",
          "type": "uint256"
        }
      ],
      "stateMutability": "view",
      "type": "function"
    },
    {
      "inputs": [
        {
          "internalType": "uint256",
          "name": "tokenId",
          "type": "uint256"
        }
      ],
      "name": "getApproved",
      "outputs": [
        {
          "internalType": "address",
          "name": "",
          "type": "address"
        }
      ],
      "stateMutability": "view",
      "type": "function"
    },
    {
      "inputs": [
        {
          "internalType": "uint256",
          "name": "tokenId",
          "type": "uint256"
        }
      ],
      "name": "getData",
      "outputs": [
        {
          "internalType": "address",
          "name": "owner",
          "type": "address"
        },
        {
          "internalType": "uint64",
          "name": "blockRevealed",
          "type": "uint64"
        },
        {
          "internalType": "uint32",
          "name": "score",
          "type": "uint32"
        }
      ],
      "stateMutability": "view",
      "type": "function"
    },
    {
      "inputs": [
        {
          "internalType": "string",
          "name": "amulet",
          "type": "string"
        }
      ],
      "name": "getScore",
      "outputs": [
        {
          "internalType": "uint32",
          "name": "",
          "type": "uint32"
        }
      ],
      "stateMutability": "pure",
      "type": "function"
    },
    {
      "inputs": [
        {
          "internalType": "address",
          "name": "owner",
          "type": "address"
        },
        {
          "internalType": "address",
          "name": "operator",
          "type": "address"
        }
      ],
      "name": "isApprovedForAll",
      "outputs": [
        {
          "internalType": "bool",
          "name": "",
          "type": "bool"
        }
      ],
      "stateMutability": "view",
      "type": "function"
    },
    {
      "inputs": [
        {
          "internalType": "uint256",
          "name": "tokenId",
          "type": "uint256"
        }
      ],
      "name": "isRevealed",
      "outputs": [
        {
          "internalType": "bool",
          "name": "",
          "type": "bool"
        }
      ],
      "stateMutability": "view",
      "type": "function"
    },
    {
      "inputs": [
        {
          "internalType": "address",
          "name": "owner",
          "type": "address"
        },
        {
          "internalType": "uint256",
          "name": "tokenId",
          "type": "uint256"
        }
      ],
      "name": "mint",
      "outputs": [],
      "stateMutability": "nonpayable",
      "type": "function"
    },
    {
      "inputs": [],
      "name": "name",
      "outputs": [
        {
          "internalType": "string",
          "name": "",
          "type": "string"
        }
      ],
      "stateMutability": "view",
      "type": "function"
    },
    {
      "inputs": [
        {
          "internalType": "uint256",
          "name": "tokenId",
          "type": "uint256"
        }
      ],
      "name": "ownerOf",
      "outputs": [
        {
          "internalType": "address",
          "name": "",
          "type": "address"
        }
      ],
      "stateMutability": "view",
      "type": "function"
    },
    {
      "inputs": [
        {
          "internalType": "string",
          "name": "title",
          "type": "string"
        },
        {
          "internalType": "string",
          "name": "amulet",
          "type": "string"
        },
        {
          "internalType": "string",
          "name": "offsetURL",
          "type": "string"
        }
      ],
      "name": "reveal",
      "outputs": [],
      "stateMutability": "nonpayable",
      "type": "function"
    },
    {
      "inputs": [
        {
          "internalType": "address",
          "name": "from",
          "type": "address"
        },
        {
          "internalType": "address",
          "name": "to",
          "type": "address"
        },
        {
          "internalType": "uint256",
          "name": "tokenId",
          "type": "uint256"
        }
      ],
      "name": "safeTransferFrom",
      "outputs": [],
      "stateMutability": "nonpayable",
      "type": "function"
    },
    {
      "inputs": [
        {
          "internalType": "address",
          "name": "from",
          "type": "address"
        },
        {
          "internalType": "address",
          "name": "to",
          "type": "address"
        },
        {
          "internalType": "uint256",
          "name": "tokenId",
          "type": "uint256"
        },
        {
          "internalType": "bytes",
          "name": "_data",
          "type": "bytes"
        }
      ],
      "name": "safeTransferFrom",
      "outputs": [],
      "stateMutability": "nonpayable",
      "type": "function"
    },
    {
      "inputs": [
        {
          "internalType": "address",
          "name": "operator",
          "type": "address"
        },
        {
          "internalType": "bool",
          "name": "approved",
          "type": "bool"
        }
      ],
      "name": "setApprovalForAll",
      "outputs": [],
      "stateMutability": "nonpayable",
      "type": "function"
    },
    {
      "inputs": [
        {
          "internalType": "bytes4",
          "name": "interfaceId",
          "type": "bytes4"
        }
      ],
      "name": "supportsInterface",
      "outputs": [
        {
          "internalType": "bool",
          "name": "",
          "type": "bool"
        }
      ],
      "stateMutability": "view",
      "type": "function"
    },
    {
      "inputs": [],
      "name": "symbol",
      "outputs": [
        {
          "internalType": "string",
          "name": "",
          "type": "string"
        }
      ],
      "stateMutability": "view",
      "type": "function"
    },
    {
      "inputs": [
        {
          "internalType": "uint256",
          "name": "tokenId",
          "type": "uint256"
        }
      ],
      "name": "tokenURI",
      "outputs": [
        {
          "internalType": "string",
          "name": "",
          "type": "string"
        }
      ],
      "stateMutability": "view",
      "type": "function"
    },
    {
      "inputs": [
        {
          "internalType": "address",
          "name": "from",
          "type": "address"
        },
        {
          "internalType": "address",
          "name": "to",
          "type": "address"
        },
        {
          "internalType": "uint256",
          "name": "tokenId",
          "type": "uint256"
        }
      ],
      "name": "transferFrom",
      "outputs": [],
      "stateMutability": "nonpayable",
      "type": "function"
    }
  ],
  "bytecode": "0x608060405234801561001057600080fd5b50612151806100206000396000f3fe608060405234801561001057600080fd5b50600436106101365760003560e01c80635055fbc3116100b2578063a22cb46511610081578063c87b56dd11610066578063c87b56dd1461034d578063e985e9c514610360578063fb9a3591146103a957610136565b8063a22cb46514610327578063b88d4fde1461033a57610136565b80635055fbc3146102a75780636352211e146102ba57806370a08231146102cd57806395d89b41146102ee57610136565b8063095ea7b31161010957806323b872dd116100ee57806323b872dd1461026e57806340c10f191461028157806342842e0e1461029457610136565b8063095ea7b314610231578063160202731461024657610136565b80630178fe3f1461013b57806301ffc9a71461019457806306fdde03146101b7578063081812fc146101f9575b600080fd5b61014e610149366004611d8d565b6103bc565b6040805173ffffffffffffffffffffffffffffffffffffffff909416845267ffffffffffffffff909216602084015263ffffffff16908201526060015b60405180910390f35b6101a76101a2366004611c7f565b610471565b604051901515815260200161018b565b60408051808201909152600681527f416d756c6574000000000000000000000000000000000000000000000000000060208201525b60405161018b9190611f62565b61020c610207366004611d8d565b610558565b60405173ffffffffffffffffffffffffffffffffffffffff909116815260200161018b565b61024461023f366004611c3e565b610618565b005b610259610254366004611cb7565b61079c565b60405163ffffffff909116815260200161018b565b61024461027c366004611ad6565b61084c565b61024461028f366004611c3e565b6108d3565b6102446102a2366004611ad6565b6108e1565b6101a76102b5366004611d8d565b6108fc565b61020c6102c8366004611d8d565b6109ac565b6102e06102db366004611a8a565b610a44565b60405190815260200161018b565b60408051808201909152600681527f414d554c4554000000000000000000000000000000000000000000000000000060208201526101ec565b610244610335366004611c04565b610a8f565b610244610348366004611b11565b610b8c565b6101ec61035b366004611d8d565b610c1a565b6101a761036e366004611aa4565b73ffffffffffffffffffffffffffffffffffffffff918216600090815260026020908152604080832093909416825291909152205460ff1690565b6102446103b7366004611cf7565b610ce3565b60008181526020819052604081205490808273ffffffffffffffffffffffffffffffffffffffff811661045c5760405162461bcd60e51b815260206004820152602b60248201527f4552433732313a206765744461746120717565727920666f72206e6f6e65786960448201527f7374656e7420746f6b656e00000000000000000000000000000000000000000060648201526084015b60405180910390fd5b929460a084901c945060e09390931c92915050565b60007fffffffff0000000000000000000000000000000000000000000000000000000082167f80ac58cd00000000000000000000000000000000000000000000000000000000148061050457507fffffffff0000000000000000000000000000000000000000000000000000000082167f5b5e139f00000000000000000000000000000000000000000000000000000000145b8061055057507f01ffc9a7000000000000000000000000000000000000000000000000000000007fffffffff000000000000000000000000000000000000000000000000000000008316145b90505b919050565b60008181526020819052604081205473ffffffffffffffffffffffffffffffffffffffff166105ef5760405162461bcd60e51b815260206004820152602c60248201527f4552433732313a20617070726f76656420717565727920666f72206e6f6e657860448201527f697374656e7420746f6b656e00000000000000000000000000000000000000006064820152608401610453565b5060009081526001602052604090205473ffffffffffffffffffffffffffffffffffffffff1690565b6000610623826109ac565b90508073ffffffffffffffffffffffffffffffffffffffff168373ffffffffffffffffffffffffffffffffffffffff1614156106c75760405162461bcd60e51b815260206004820152602160248201527f4552433732313a20617070726f76616c20746f2063757272656e74206f776e6560448201527f72000000000000000000000000000000000000000000000000000000000000006064820152608401610453565b3373ffffffffffffffffffffffffffffffffffffffff8216148061071b575073ffffffffffffffffffffffffffffffffffffffff8116600090815260026020908152604080832033845290915290205460ff165b61078d5760405162461bcd60e51b815260206004820152603860248201527f4552433732313a20617070726f76652063616c6c6572206973206e6f74206f7760448201527f6e6572206e6f7220617070726f76656420666f7220616c6c00000000000000006064820152608401610453565b6107978383610ee3565b505050565b600080600284846040516107b1929190611e37565b602060405180830381855afa1580156107ce573d6000803e3d6000fd5b5050506040513d601f19601f820116820180604052508101906107f19190611c67565b90506000805b82156108435782600f166008141561083357610814600182611f8d565b90508163ffffffff168163ffffffff16111561082e578091505b610837565b5060005b600483901c92506107f7565b50949350505050565b6108563382610f83565b6108c85760405162461bcd60e51b815260206004820152603160248201527f4552433732313a207472616e736665722063616c6c6572206973206e6f74206f60448201527f776e6572206e6f7220617070726f7665640000000000000000000000000000006064820152608401610453565b6107978383836110d9565b6108dd8282611296565b5050565b61079783838360405180602001604052806000815250610b8c565b600080600061090a846103bc565b50909250905073ffffffffffffffffffffffffffffffffffffffff82166109995760405162461bcd60e51b815260206004820152602e60248201527f4552433732313a20697352657665616c656420717565727920666f72206e6f6e60448201527f6578697374656e7420746f6b656e0000000000000000000000000000000000006064820152608401610453565b67ffffffffffffffff1615159392505050565b60008181526020819052604081205473ffffffffffffffffffffffffffffffffffffffff81166105505760405162461bcd60e51b815260206004820152602960248201527f4552433732313a206f776e657220717565727920666f72206e6f6e657869737460448201527f656e7420746f6b656e00000000000000000000000000000000000000000000006064820152608401610453565b60405162461bcd60e51b815260206004820152600f60248201527f4e6f7420696d706c656d656e74656400000000000000000000000000000000006044820152600090606401610453565b73ffffffffffffffffffffffffffffffffffffffff8216331415610af55760405162461bcd60e51b815260206004820152601960248201527f4552433732313a20617070726f766520746f2063616c6c6572000000000000006044820152606401610453565b33600081815260026020908152604080832073ffffffffffffffffffffffffffffffffffffffff87168085529083529281902080547fffffffffffffffffffffffffffffffffffffffffffffffffffffffffffffff001686151590811790915590519081529192917f17307eab39ab6107e8899845ad3d59bd9653f200f220920489ca2b5937696c31910160405180910390a35050565b610b963383610f83565b610c085760405162461bcd60e51b815260206004820152603160248201527f4552433732313a207472616e736665722063616c6c6572206973206e6f74206f60448201527f776e6572206e6f7220617070726f7665640000000000000000000000000000006064820152608401610453565b610c14848484846112b0565b50505050565b60008181526020819052604090205460609073ffffffffffffffffffffffffffffffffffffffff16610cb45760405162461bcd60e51b815260206004820152602f60248201527f4552433732314d657461646174613a2055524920717565727920666f72206e6f60448201527f6e6578697374656e7420746f6b656e00000000000000000000000000000000006064820152608401610453565b610cbd82611339565b604051602001610ccd9190611e47565b6040516020818303038152906040529050919050565b6040831115610d345760405162461bcd60e51b815260206004820152601060248201527f416d756c65743a20546f6f206c6f6e67000000000000000000000000000000006044820152606401610453565b60008484604051610d46929190611e37565b604051908190039020905060008080610d5e846103bc565b9250925092508167ffffffffffffffff16600014610dbe5760405162461bcd60e51b815260206004820152601860248201527f416d756c65743a20416c72656164792072657665616c656400000000000000006044820152606401610453565b610dc8888861079c565b905060048163ffffffff161015610e215760405162461bcd60e51b815260206004820152601560248201527f416d756c65743a2053636f726520746f6f206c6f7700000000000000000000006044820152606401610453565b600084815260208190526040902073ffffffffffffffffffffffffffffffffffffffff84167bffffffffffffffff00000000000000000000000000000000000000004360a01b16177fffffffff0000000000000000000000000000000000000000000000000000000060e084901b16179055837f869a54a5423109cd8469dd6939fd68faae75a4771942c0530877f8ee23ab5587338c8c8c8c8c8c604051610ecf9796959493929190611efc565b60405180910390a250505050505050505050565b600081815260016020526040902080547fffffffffffffffffffffffff00000000000000000000000000000000000000001673ffffffffffffffffffffffffffffffffffffffff84169081179091558190610f3d826109ac565b73ffffffffffffffffffffffffffffffffffffffff167f8c5be1e5ebec7d5bd14f71427d1e84f3dd0314c0f7b2291e5b200ac8c7c3b92560405160405180910390a45050565b60008181526020819052604081205473ffffffffffffffffffffffffffffffffffffffff1661101a5760405162461bcd60e51b815260206004820152602c60248201527f4552433732313a206f70657261746f7220717565727920666f72206e6f6e657860448201527f697374656e7420746f6b656e00000000000000000000000000000000000000006064820152608401610453565b6000611025836109ac565b90508073ffffffffffffffffffffffffffffffffffffffff168473ffffffffffffffffffffffffffffffffffffffff16148061109457508373ffffffffffffffffffffffffffffffffffffffff1661107c84610558565b73ffffffffffffffffffffffffffffffffffffffff16145b806110d1575073ffffffffffffffffffffffffffffffffffffffff80821660009081526002602090815260408083209388168352929052205460ff165b949350505050565b8273ffffffffffffffffffffffffffffffffffffffff166110f9826109ac565b73ffffffffffffffffffffffffffffffffffffffff16146111825760405162461bcd60e51b815260206004820152602960248201527f4552433732313a207472616e73666572206f6620746f6b656e2074686174206960448201527f73206e6f74206f776e00000000000000000000000000000000000000000000006064820152608401610453565b73ffffffffffffffffffffffffffffffffffffffff821661120a5760405162461bcd60e51b8152602060048201526024808201527f4552433732313a207472616e7366657220746f20746865207a65726f2061646460448201527f72657373000000000000000000000000000000000000000000000000000000006064820152608401610453565b611215600082610ee3565b60008181526020819052604080822080547fffffffffffffffffffffffff00000000000000000000000000000000000000001673ffffffffffffffffffffffffffffffffffffffff80871691821790925591518493918716917fddf252ad1be2c89b69c2b068fc378daa952ba7f163c4a11628f55a4df523b3ef91a4505050565b6108dd8282604051806020016040528060008152506113a7565b6112bb8484846110d9565b6112c784848484611430565b610c145760405162461bcd60e51b815260206004820152603260248201527f4552433732313a207472616e7366657220746f206e6f6e20455243373231526560448201527f63656976657220696d706c656d656e74657200000000000000000000000000006064820152608401610453565b60608161137a575060408051808201909152600481527f30783030000000000000000000000000000000000000000000000000000000006020820152610553565b8160005b811561139d578061138e81612053565b915050600882901c915061137e565b6110d18482611615565b6113b18383611908565b6113be6000848484611430565b6107975760405162461bcd60e51b815260206004820152603260248201527f4552433732313a207472616e7366657220746f206e6f6e20455243373231526560448201527f63656976657220696d706c656d656e74657200000000000000000000000000006064820152608401610453565b600073ffffffffffffffffffffffffffffffffffffffff84163b1561160a576040517f150b7a0200000000000000000000000000000000000000000000000000000000815273ffffffffffffffffffffffffffffffffffffffff85169063150b7a02906114a7903390899088908890600401611eb3565b602060405180830381600087803b1580156114c157600080fd5b505af192505050801561150f575060408051601f3d9081017fffffffffffffffffffffffffffffffffffffffffffffffffffffffffffffffe016820190925261150c91810190611c9b565b60015b6115bf573d80801561153d576040519150601f19603f3d011682016040523d82523d6000602084013e611542565b606091505b5080516115b75760405162461bcd60e51b815260206004820152603260248201527f4552433732313a207472616e7366657220746f206e6f6e20455243373231526560448201527f63656976657220696d706c656d656e74657200000000000000000000000000006064820152608401610453565b805181602001fd5b7fffffffff00000000000000000000000000000000000000000000000000000000167f150b7a02000000000000000000000000000000000000000000000000000000001490506110d1565b506001949350505050565b60606000611624836002611fb5565b61162f906002611f75565b67ffffffffffffffff81111561166e577f4e487b7100000000000000000000000000000000000000000000000000000000600052604160045260246000fd5b6040519080825280601f01601f191660200182016040528015611698576020820181803683370190505b5090507f3000000000000000000000000000000000000000000000000000000000000000816000815181106116f6577f4e487b7100000000000000000000000000000000000000000000000000000000600052603260045260246000fd5b60200101907effffffffffffffffffffffffffffffffffffffffffffffffffffffffffffff1916908160001a9053507f780000000000000000000000000000000000000000000000000000000000000081600181518110611780577f4e487b7100000000000000000000000000000000000000000000000000000000600052603260045260246000fd5b60200101907effffffffffffffffffffffffffffffffffffffffffffffffffffffffffffff1916908160001a90535060006117bc846002611fb5565b6117c7906001611f75565b90505b60018111156118b2577f303132333435363738396162636465660000000000000000000000000000000085600f166010811061182f577f4e487b7100000000000000000000000000000000000000000000000000000000600052603260045260246000fd5b1a60f81b82828151811061186c577f4e487b7100000000000000000000000000000000000000000000000000000000600052603260045260246000fd5b60200101907effffffffffffffffffffffffffffffffffffffffffffffffffffffffffffff1916908160001a90535060049490941c936118ab8161201e565b90506117ca565b5083156119015760405162461bcd60e51b815260206004820181905260248201527f537472696e67733a20686578206c656e67746820696e73756666696369656e746044820152606401610453565b9392505050565b73ffffffffffffffffffffffffffffffffffffffff821661196b5760405162461bcd60e51b815260206004820181905260248201527f4552433732313a206d696e7420746f20746865207a65726f20616464726573736044820152606401610453565b600081815260208190526040902054156119c75760405162461bcd60e51b815260206004820152601c60248201527f4552433732313a20746f6b656e20616c7265616479206d696e746564000000006044820152606401610453565b60008181526020819052604080822073ffffffffffffffffffffffffffffffffffffffff85169081905590518392907fddf252ad1be2c89b69c2b068fc378daa952ba7f163c4a11628f55a4df523b3ef908290a45050565b803573ffffffffffffffffffffffffffffffffffffffff8116811461055357600080fd5b60008083601f840112611a54578182fd5b50813567ffffffffffffffff811115611a6b578182fd5b602083019150836020828501011115611a8357600080fd5b9250929050565b600060208284031215611a9b578081fd5b61190182611a1f565b60008060408385031215611ab6578081fd5b611abf83611a1f565b9150611acd60208401611a1f565b90509250929050565b600080600060608486031215611aea578081fd5b611af384611a1f565b9250611b0160208501611a1f565b9150604084013590509250925092565b60008060008060808587031215611b26578081fd5b611b2f85611a1f565b9350611b3d60208601611a1f565b925060408501359150606085013567ffffffffffffffff80821115611b60578283fd5b818701915087601f830112611b73578283fd5b813581811115611b8557611b856120bb565b604051601f82017fffffffffffffffffffffffffffffffffffffffffffffffffffffffffffffffe0908116603f01168101908382118183101715611bcb57611bcb6120bb565b816040528281528a6020848701011115611be3578586fd5b82602086016020830137918201602001949094529598949750929550505050565b60008060408385031215611c16578182fd5b611c1f83611a1f565b915060208301358015158114611c33578182fd5b809150509250929050565b60008060408385031215611c50578182fd5b611c5983611a1f565b946020939093013593505050565b600060208284031215611c78578081fd5b5051919050565b600060208284031215611c90578081fd5b8135611901816120ea565b600060208284031215611cac578081fd5b8151611901816120ea565b60008060208385031215611cc9578182fd5b823567ffffffffffffffff811115611cdf578283fd5b611ceb85828601611a43565b90969095509350505050565b60008060008060008060608789031215611d0f578182fd5b863567ffffffffffffffff80821115611d26578384fd5b611d328a838b01611a43565b90985096506020890135915080821115611d4a578384fd5b611d568a838b01611a43565b90965094506040890135915080821115611d6e578384fd5b50611d7b89828a01611a43565b979a9699509497509295939492505050565b600060208284031215611d9e578081fd5b5035919050565b60008151808452611dbd816020860160208601611ff2565b601f017fffffffffffffffffffffffffffffffffffffffffffffffffffffffffffffffe0169290920160200192915050565b600082845282826020860137806020848601015260207fffffffffffffffffffffffffffffffffffffffffffffffffffffffffffffffe0601f85011685010190509392505050565b6000828483379101908152919050565b60007f68747470733a2f2f61742e616d756c65742e67617264656e2f746f6b656e2f0082528251611e7f81601f850160208701611ff2565b7f2e6a736f6e000000000000000000000000000000000000000000000000000000601f939091019283015250602401919050565b600073ffffffffffffffffffffffffffffffffffffffff808716835280861660208401525083604083015260806060830152611ef26080830184611da5565b9695505050505050565b600073ffffffffffffffffffffffffffffffffffffffff8916825260806020830152611f2c60808301888a611def565b8281036040840152611f3f818789611def565b90508281036060840152611f54818587611def565b9a9950505050505050505050565b6000602082526119016020830184611da5565b60008219821115611f8857611f8861208c565b500190565b600063ffffffff808316818516808303821115611fac57611fac61208c565b01949350505050565b6000817fffffffffffffffffffffffffffffffffffffffffffffffffffffffffffffffff0483118215151615611fed57611fed61208c565b500290565b60005b8381101561200d578181015183820152602001611ff5565b83811115610c145750506000910152565b60008161202d5761202d61208c565b507fffffffffffffffffffffffffffffffffffffffffffffffffffffffffffffffff0190565b60007fffffffffffffffffffffffffffffffffffffffffffffffffffffffffffffffff8214156120855761208561208c565b5060010190565b7f4e487b7100000000000000000000000000000000000000000000000000000000600052601160045260246000fd5b7f4e487b7100000000000000000000000000000000000000000000000000000000600052604160045260246000fd5b7fffffffff000000000000000000000000000000000000000000000000000000008116811461211857600080fd5b5056fea2646970667358221220ba9aba5c5ffa4c9f6136a86543cb9b9eb31d66df6b6d35d94d30cb9bff04c06064736f6c63430008020033",
  "linkReferences": {},
  "deployedLinkReferences": {}
}